:100000000C94E8040C9405050C9405050C94050566
:100010000C9405050C9405050C9405050C94050538
:100020000C9405050C9405050C94791D0C9442184C
:100030000C94C2300C9405050C9405050C94050530
:100040000C9405050C9405050C9405050C94050508
:100050000C9405050C94EE130C9405050C94050501
:100060000C9405050C9405050C9405050C940505E8
:100070000C9405050C9405050C9405050C940505D8
:100080000C9405050C9405050C9405050C940505C8
:100090000C9405050C9405050C9405050C940505B8
:1000A0000C9405050C9405050C94050554657374B2
:1000B00031323340313233006A7040702E636F6DDD
:1000C000005A7A243131313131313100626340706C
:1000D0002E636F6D006A6A40702E636F6D0046720A
:1000E000756974344D75736963214D61726C6579FE
:1000F000486176796E383921010128006A37393232
:1001000032383001012B004672756974344D7573B5
:1001100069635334786A663834210037517032721B
:1001200042704455732451414E2D34006A373932A0
:10013000323830006572676F646F785F657A2F625E
:100140006F63616A204020302E392E31372D3634CE
:100150002D676432663938352D64697274792042AE
:1001600075696C742061743A20323032302D30362B
:100170002D32362D32313A31383A3239000102E32C
:10018000720103E300000000000000000000000016
:100190000000000000000000007E0F00D4FFFFFF01
:1001A000C70000007800000000000000002A2B2893
:1001B000000000000000000000000000000000003F
:1001C00029000000002C1E3420212224342627255B
:1001D0002E362D3738271E1F202122232425263393
:1001E00033362E37381F0405060708090A0B0C0D95
:1001F0000E0F101112131415161718191A1B1C1DA7
:100200002F3130232D350405060708090A0B0C0D84
:100210000E0F101112131415161718191A1B1C1D86
:100220002F3130354C0001010101010101010102B2
:100230000202020202020202030303030303030396
:100240000404040404040405050505050606060661
:1002500006070707070708080808090909090A0A1D
:100260000A0B0B0B0C0C0C0D0D0D0E0E0E0F0F0FC1
:10027000101011111112121313141415151616174C
:1002800017181819191A1A1B1B1C1D1D1E1E1F20BA
:1002900020212222232424252626272829292A2B07
:1002A0002C2D2D2E2F30313232333435363738392C
:1002B0003A3B3C3D3E3F4041424344454647484926
:1002C0004A4C4D4E4F50515354555658595A5B5DF8
:1002D0005E5F616264656668696B6C6D6F70727396
:1002E0007577787A7B7D7E8082838587888A8C8EFD
:1002F0008F91939596989A9C9EA0A2A3A5A7A9AB2F
:10030000ADAFB1B3B5B7BABCBEC0C2C4C6C9CBCD20
:10031000CFD1D4D6D8DBDDDFE2E4E7E9EBEEF0F3D2
:10032000F5F8FAFDFFFFAA7F55402223252628294C
:100330002A2C2D2F3032333536383A3B3D3E404261
:10034000434547494A4C4E5051535557595A5C5EA4
:100350006062646668696B6D6F71737577797B7DB8
:100360007F81838587898A8C8E90929496989A9CB7
:100370009E9FA1A3A5A7A8AAACAEAFB1B3B4B6B8CF
:10038000B9BBBCBEBFC1C2C3C5C6C7C9CACBCCCD31
:10039000CED0D1D2D2D3D4D5D6D7D7D8D9D9DADA0C
:1003A000DBDBDBDCDCDCDCDCDDDDDDDDDCDCDCDC8C
:1003B000DCDBDBDBDADAD9D9D8D7D7D6D5D4D3D2C0
:1003C000D2D1D0CECDCCCBCAC9C7C6C5C3C2C1BF9E
:1003D000BEBCBBB9B8B6B4B3B1AFAEACAAA8A7A502
:1003E000A3A19F9E9C9A98969492908E8C8A8987BE
:1003F0008583817F7D7B79777573716F6D6B69689C
:10040000666462605E5C5A5957555351504E4C4A6F
:100410004947454342403E3D3B3A3836353332301A
:100420002F2D2C2A2928262523222D3E0029004C59
:1004300000175CE100035100001E00140004001DC1
:10044000611E0F175C1F00070016621B001F0F2A9A
:1004500000200015000B68100052002C4221001AE9
:10046000001764060050004B00220005000A001926
:1004700000000065000C5D260200002F6F000010D8
:10048000502D0027020000306700004D0023000DB2
:10049000001C000E00000029002400090011640F58
:1004A000004F004E00250018000868360051002853
:1004B000442600130012623700200F2B0027003360
:1004C000000C003861210FDF5C2E00310034000089
:1004D000000000000000000000000000000000001C
:1004E000000000000000000000000000000000000C
:1004F00000000000000000000000000000000000FC
:1005000000000000000000000000000000000000EB
:1005100000000000000000000000000000000000DB
:1005200000000000000000000000000000000000CB
:1005300000000000000000000000000000000000BB
:1005400000000000000000000000000000000000AB
:10055000000000000000000000000000000000009B
:10056000000000000000000000000000000000008B
:100570000000000000000000000000000035000145
:100580000003510100010000001E020100010001F2
:1005900061010001001F0201005062010001000121
:1005A00000200252005168010001000142210201B5
:1005B000004F64010001000100220201000100015E
:1005C0000000000100010001000000016F000001B7
:1005D000000100010000000167000001002302018A
:1005E00000010001000000010024025F005C64596A
:1005F0000062000100250260005D685A006300018E
:1006000044260261005E625B00360001002702544E
:100610000055005661570001000100010001000172
:1006200000010000000100010001000100010000C4
:1006300000010001000100010001000100010001B2
:1006400000FB0001000100F6000100FA00F90001C2
:10065000000100F40001000100FC000100FD0001A8
:100660000001000100010001000000010001000183
:100670000000000100000001000100010000000175
:100680000000000100010001000100010000000164
:100690000001000100F2000100FE0001000100F075
:1006A00000F1000100FF00F50001000100F300016E
:1006B000000100F70001000100010001000100013C
:1006C00000010001000100010001000000350001EF
:1006D00000010001000100000001001E00230001D4
:1006E000610100010001001F002462BC0001000143
:1006F00000010020002568AE000100014201002138
:10070000002664BB00010001000100220027000157
:100710000000000100010001000000016F00000165
:100720000001000100000001670000010001001E3F
:1007300002230201000000010001001F02246401E5
:1007400000010001000100200225680100010001F4
:100750004401002102266201000100010001002283
:1007600002270201610100010001000100010001F6
:100770000001000000010001000100010001000073
:10078000000100005C7F000100010001000100E0A9
:100790005C810001000100010001000100800001F6
:1007A0000001000100010001000D5D0100010001D8
:1007B0000001000100010001000000010001000132
:1007C0000000000100000001000100010000000124
:1007D0000000000100010001000100010000000113
:1007E0000001000100010001000100010001000101
:1007F00000010001000100010001000100010001F1
:1008000000010001000100010001000100010001E0
:100810000001000100010001000100000032190A7E
:1008200000047F3F1F643214643214783C1E1E148F
:100830000A0505010902A10185020901A1000509B6
:1008400019012905150025019505750181029501FC
:10085000750381010501093009311581257F950254
:100860007508810609381581257F9501750881066F
:10087000050C0A38021581257F950175088106C08F
:10088000C005010980A101850319012AB7001501DE
:1008900026B700950175108100C0050C0901A10162
:1008A000850419012AA002150126A00295017510E0
:1008B0008100C005010906A1018505050719E02988
:1008C000E715002501950875018102050719002922
:1008D000EF1500250195F075018102050819012920
:1008E00005950575019102950175039101C00501FA
:1008F0000906A101050719E029E71500250195085A
:10090000750181029501750881010507190029FF0C
:10091000150026FF009506750881000508190129B4
:1009200005950575019102950175039101C00902B4
:100930003B00020100A0FA090400000103010100CC
:100940000921110100012240000705810308000A66
:100950000904010001030000000921110100012226
:10096000BC000705820320000A12011001000000EC
:1009700008EDFE071301000102030104033000002B
:100980000016034500720067006F0044006F007896
:1009900000200045005A00000030035A0053004177
:1009A00000200054006500630068006E006F006C5A
:1009B000006F006700790020004C00610062007346
:1009C00000200049006E00630000000403090400D9
:1009D00011241FBECFEFDAE0DEBFCDBF23E0A0E9D8
:1009E000B1E001C01D92AB38B207E1F711E0A0E021
:1009F000B1E0E4E8F8E602C005900D92A039B10735
:100A0000D9F70E94D12D0C9440340C940000E8EDED
:100A1000F0E080818E7F80831092E2001092DA00F5
:100A20001092E100A0EEB0E08C9181608C93808107
:100A30008F77808319BCA7EDB0E08C918E7F8C936B
:100A400080818F7E80831092510308952091E4006D
:100A50003091E50085E69091EC0090FF06C0909102
:100A6000E80090FF06C080E008959091E80092FDB4
:100A7000FACF90917D03992391F0953091F0909168
:100A8000EB0095FD10C04091E4005091E500241763
:100A9000350709F381509A01F1F684E0089582E068
:100AA000089583E0089581E00895EF92FF920F93F7
:100AB0001F93CF937C018B010E942605C82F8111C3
:100AC00017C08091E80085FD0BC08091E8008E770B
:100AD0008093E8000E942605882399F3C82F08C058
:100AE000F70181917F018093F1000150110949F7CD
:100AF0008C2FCF911F910F91FF90EF9008958091CF
:100B00007F0387FF13C08091E80082FF06C08091B9
:100B1000E8008B778093E80004C080917D03811109
:100B2000F2CF089580917D038823D9F38091E80066
:100B300080FFF8CF8091E8008E77ECCF982F9093CC
:100B4000E900242F762F50E0891731F07091EC00E6
:100B50002091ED005091F00021FD07C09F5F97307C
:100B600071F78093E90081E008953091EB003E7FBA
:100B70003093EB003091ED003D7F3093ED003091EC
:100B8000EB0031603093EB007093EC002093ED00AC
:100B90005093F0002091EE0027FDE0CF80E0089513
:100BA000CF92DF92EF92FF920F931F93CF93DF9339
:100BB000C8EDD0E088818F7E8883E7EDF0E080810A
:100BC0008160808384E082BF81E0809351038881CB
:100BD0008E7F888302EE10E0F80110821092DA0016
:100BE00081EEC82ED12CF601108288818F77888300
:100BF00088818068888388818F7D888319BC109262
:100C00007D0310927E0310927C0310927B0390EE82
:100C1000E92EF12CF70180818B7F808388818160B0
:100C2000888342E060E080E00E949E05F6018081BA
:100C30008E7F8083F80180818160808380818860DD
:100C40008083F70180818E7F8083888180618883A3
:100C5000DF91CF911F910F91FF90EF90DF90CF9098
:100C60000895FC018091850390918603861797076C
:100C7000A0F06115710529F49091E8009E7790939A
:100C8000E80090E06115710551F4911108C0809160
:100C9000E80082FF35C080E00895BC01F2CF80916A
:100CA0007D038823C9F18530C9F18091E80083FD77
:100CB00031C08091E80082FDEACF8091E80080FF9A
:100CC000E1CF2091F3008091F200322F282F61159F
:100CD000710519F02830310558F091E028303105C0
:100CE00009F090E02091E8002E772093E800CACF29
:100CF00081918093F100615071092F5F3F4FE7CFE1
:100D000080917D03882341F0853041F08091E80097
:100D100083FFBDCF81E0089582E0089583E00895C8
:100D200080917D03843011F081E0089582E0089580
:100D3000089580915A030895833011F128F4813089
:100D400049F0823091F00895853081F120F18630AC
:100D5000C1F1089580913703681720F4861B8093B2
:100D60003703089510923703089580911D01681785
:100D700020F4861B80931D01089510921D01089593
:100D800080911A01681720F4861B80931A01089538
:100D900010921A01089580911901681720F4861B9A
:100DA00080931901089510921901089580911801F6
:100DB000681720F4861B809318010895109218017B
:100DC000089580911701681720F4861B80931701FE
:100DD0000895109217010895833081F128F481302D
:100DE00059F08230D1F00895853009F449C0B8F146
:100DF000863009F456C0089580913703482F460F76
:100E00005527551F4F3F510524F4680F6093370352
:100E100008958FEF80933703089580911D01482F27
:100E2000460F5527551F4F3F510524F4680F609317
:100E30001D0108958FEF80931D01089580911A017F
:100E4000482F460F5527551F4F3F510524F4680F73
:100E500060931A0108958FEF80931A01089580918D
:100E60001901482F460F5527551F4F3F510524F4B0
:100E7000680F6093190108958FEF80931901089509
:100E800080911801482F460F5527551F4F3F510598
:100E900024F4680F6093180108958FEF8093180170
:100EA000089580911701482F460F5527551F4F3F32
:100EB000510524F4680F6093170108958FEF809314
:100EC00017010895803FC1F480913E0387FD109281
:100ED0003E0380913D0381110EC080913E0381113C
:100EE0000AC080913F03811106C0809140038111A7
:100EF00002C0109238030895813F29F480913E0387
:100F000018162CF3E6CF90913D03823F29F497FF0A
:100F1000E0CF10923D03DDCF833F19F41916CCF3D7
:100F2000D8CF893F39F480913F03181694F6109278
:100F30003F03CFCF8A3F29F480913F0387FFC9CF7A
:100F4000F6CF8B3F39F48091400387FFC2CF1092D8
:100F50004003BFCF8C3F29F4809140031816BCF3A7
:100F6000B8CF843F31F480913C038E7F80933C0363
:100F7000B0CF853F21F480913C038D7FF7CF863F32
:100F800021F480913C038B7FF1CF873F21F4809146
:100F90003C03877FEBCF883F21F480913C038F7E19
:100FA000E5CF8D3F31F4809116038E7F8093160339
:100FB00090CF8E3F21F4809116038D7FF7CF8F3F26
:100FC00009F087CF809116038B7FF0CF80911603B5
:100FD00080FF0CC06091180170E07595679575955C
:100FE00067956115710549F1862F089581FF06C047
:100FF0006091180170E075956795F3CF60911801C5
:1010000082FD0BC0909138039923A1F060911701E4
:1010100080911801961738F0682F70E060387105DC
:1010200000F38FE70895899FC001112470E00E94AA
:10103000CB31F4CF61E070E0D7CF81E008958091AB
:10104000160380FF12C060911A0185E0689FB0010D
:101050001124759567957595679560387105A8F5A4
:1010600061157105A1F1862F089581FF09C0609176
:101070001A0185E0689FB001112475956795EDCF41
:1010800082FF07C060911A0185E0689FB0011124BA
:10109000E4CF209138032223A9F0909119016091A7
:1010A0001A0185E0689FB00111242917B0F6269F28
:1010B000A001279F500D1124692F70E0CA010E94E2
:1010C000CB31CBCF65E070E0CECF8FE7089581E0E4
:1010D0000895803F31F40E941F08819580933E035C
:1010E0000895813F19F40E941F08F8CF823F31F420
:1010F0000E941F08819580933D030895833F19F452
:101100000E941F08F8CF893F29F40E94E6078093C8
:101110003F0308958A3F21F40E94E6078195F7CFA7
:101120008B3F31F40E94E607819580934003089538
:101130008C3F19F40E94E607F8CF843F31F4809188
:101140003C03816080933C030895853F21F48091A6
:101150003C038260F7CF863F21F480913C0384609A
:10116000F1CF873F21F480913C038860EBCF883F2B
:1011700021F480913C038061E5CF8D3F31F4809173
:10118000160381608093160308958E3F21F48091A9
:1011900016038260F7CF8F3FB9F780911603846002
:1011A000F1CF9C014FB7F8948091120390911303F3
:1011B000A0911403B09115034FBF821B930B0895A8
:1011C000209128012223C9F02091180327FF15C080
:1011D000E62FE695E695E695EE31D8F4E80FF92F7F
:1011E000F11D677021E030E001C0220F6A95EAF737
:1011F00020958281282322830895FC013296089647
:101200002191621303C0DF0111971C92E817F907BF
:10121000B9F70895209128012223C1F020911803E5
:1012200027FF14C0E62FE695E695E695EE31F8F433
:10123000E80FF92FF11D677021E030E001C0220FA7
:101240006A95EAF78281822B82830895FC013296A7
:101250002FEF30E04191641751F02F3F19F4411105
:1012600001C0232F3F5F3630A9F72F3F09F40895BF
:10127000820F911D27FD9A95FC016283089580914C
:101280000903811110920903089580910803909138
:101290000703892B90910603892B809390019091ED
:1012A00009039923A1F0892B809390018091280153
:1012B000882341F18091180387FF24C08EE1E2E981
:1012C000F1E090E0815000F591110E943F09E0911A
:1012D0001A03F0911B033097E1F0809128018823D5
:1012E00059F08091180387FF07C080919001809387
:1012F000910185E0809390010280F381E02D80E9E7
:1013000091E0099486E0DBCF21912223D9F29F5FFF
:10131000D9CF0895292F220F290F220F820F982F3E
:10132000977086958695869545E0849F9001112457
:1013300070E060E080E0F901E60FF71FE653FD4F33
:10134000408150E0092E02C0569547950A94E2F775
:1013500041705527062E01C0440F0A94EAF7842BEA
:101360006F5F7F4F6530710531F70895292F220F88
:10137000920F990F890F982F977071E001C0770F26
:101380009A95EAF786958695869525E0829FC00115
:10139000112450E040E0A62FB0E0FC01E40FF51F5F
:1013A000E653FD4F60819D01042E02C036952795BE
:1013B0000A94E2F7217021952627272326272083E8
:1013C0004F5F5F4F4530510541F708952091C902A5
:1013D0009091980256E0291302C080E0089530E011
:1013E000529FF001539FF00D1124E756FD4F71817C
:1013F000761306C07081781303C07281741304C021
:101400002F5F3F4F2770E7CF81E008958091C90299
:1014100090919802981301C008958F5F8770FACF5A
:10142000882341F0809590910703892380930703D7
:101430000C9445090895882339F090910703892B6E
:10144000809307030C9445090895882341F0809503
:10145000909108038923809308030C94450908950B
:10146000882339F090910803892B809308030C940A
:1014700045090895209146023091470228173907FF
:1014800071F09093470280934602E0911A03F09125
:101490001B03309721F00084F185E02D0994089515
:1014A00020914402309145022817390771F090933A
:1014B000450280934402E0911A03F0911B03309798
:1014C00021F00680F781E02D09940895E0911A0338
:1014D000F0911B03309721F00190F081E02D0994E9
:1014E00080E00895FA01811101C0FB010994809107
:1014F0005203982F9E7F29F481708260809352035B
:1015000008958635E8F381708465F8CFAF92BF9275
:10151000CF92DF92EF92FF920F931F93CF93DF93BF
:10152000C82ED62EE42FF0E0EB5DFD4F611118C000
:10153000E4919E2F8E2FD90111968C931197EC93E5
:1015400012969C93129713961C92DF91CF911F9144
:101550000F91FF90EF90DF90CF90BF90AF900895E4
:10156000E62EF12CE491FE2F0E2F10E046E0849F32
:10157000C0011124CFEFD0E0BE010E94B7318C2D05
:1015800090E0880F991FA5E5A69FA001A79F500D89
:101590001124841B950BB82EBB0CB80ECE018E19EE
:1015A0009F09809FA001819F500D909F500D112495
:1015B000952FDB9CD0011124AB2FBB276E01CA1ADB
:1015C000DB0AC09ED001C19EB00DD09EB00D11248B
:1015D0008B2F6E01CB18D1085601AE9C6001AF9CD9
:1015E000D00CBE9CD00C1124CD2CDD24CC19DD09EF
:1015F000C09F7001C19FF00CD09FF00C112462308D
:101600007105B1F058F46115710579F0613071051B
:1016100009F491CF8E2FE52F9B2F8DCF643071056C
:1016200071F048F066307105A9F78E2FEF2D83CF4A
:10163000852F9F2D80CFEB2F852F9F2F7CCF8F2D38
:10164000E52FFBCF9091180392FF06C0282F287139
:101650002830F9F4877F846093FF06C0282F287113
:101660002831F1F4877E84612091190320FF06C0A0
:10167000382F38713830D9F4877F816021FF06C058
:10168000282F28712831D1F4877E816194FD877ECF
:101690000895282F24712430F9F68B7F8860DCCFE1
:1016A000282F2471243101F78B7E8861DDCF382FFC
:1016B0003171313019F78E7F8860E0CF282F21718A
:1016C000213121F78E7E8861E1CFCF93DF93972F71
:1016D00070E026E0929F600D711D1124FB0144E52E
:1016E000849FE00DF11D1124EE0FFF1FE35DFB4F02
:1016F000C591D491CE01C238D105B1F1E0F5C13325
:10170000D10509F498C048F5C932D10509F48CC057
:10171000CA32D10509F496C0C11551E5D50708F0C4
:10172000BEC0C11520E5D20708F01AC1C83ED105D8
:1017300008F09CC0C03ED10560F5C83AD10508F05C
:1017400088C0C53AD10508F003C1C130D10509F1FF
:1017500008F443C02497E8F440C0C533D10509F428
:101760005CC0C933D105C1F620911803237089F0FC
:1017700080EE90E00EC0C33ED10591F168F4C03E0A
:10178000D105F9F0C23ED10539F62091180322FDAA
:1017900020C0DF91CF910895C63ED10561F1C73ECB
:1017A000D10581F1C43ED10509F0B6CF20911903CE
:1017B00021FFEFCF8091180384FD0FC087EE90E0EA
:1017C000E8CF2091180320FD20C13091190330FF8C
:1017D000E0CF83EE90E024FFDCCF90E080E0D9CF33
:1017E0002091180322FD14C13091190330FDC0CFA0
:1017F00024FDF3CFCECF2091180323FFCACF24FDC1
:10180000ECCFDCCF2091180323FD05C130911903E3
:1018100031FFEECF84EE90E0BCCF2091180325FF7E
:10182000B8CF89E290E0B5CF2091180325FFB1CF62
:1018300085E390E0AECF2091180326FFAACF8AE27D
:1018400090E0A7CF2091180326FFA3CF81E390E07B
:10185000A0CFCF3BD10508F6C85AD0E0CC0FDD1F92
:10186000CF59DE4F88819981946493CFC11540E2AE
:10187000D40760F4C11551E0D50708F08ACFCE0136
:101880009065C03FD10508F084CFA7CFC11580E493
:10189000D80708F4A2CFCE019F70906A7ACFC11505
:1018A00095E5D90720F5C11524E5D20708F090C0C9
:1018B000C11543E5D40708F076C0C11552E5D50738
:1018C00008F46CC09E012370332741E050E002C051
:1018D000440F551F2A95E2F78C2F8695869520E2B6
:1018E000829FC0011124842B952B9C6852CFC11577
:1018F00089E5D807A0F4C11598E5D90708F06DC0AF
:10190000C11526E5D20708F068CF8C2F0E94220B64
:1019100090E0982F882788279F7190623ACFC11551
:101920004AE5D40708F45EC0CE0190568115904276
:1019300008F053CF8D2F8F710E94220B482F50E05B
:10194000542F442744275F71CE019927906223C00A
:10195000C55AD0E0C25ADE4F888190E0906419CF1A
:101960009E01F4E036952795FA95E1F723703C2F18
:10197000337081E090E002C0880F991F3A95E2F73A
:101980009C68AC01522B8C2F86958695837020E243
:10199000829FC0011124842B952BFBCE9C2F88277E
:1019A000816F906AF6CE9E012370332741E050E0AC
:1019B00002C0440F551F2A95E2F78C2F8695869515
:1019C00020E2829FC0011124842B952B9A68E1CEDE
:1019D0009C2F8827846F906ADCCE9C2F8827806F8D
:1019E000906AD7CE8C2F8F700E94220B9E0194E0BC
:1019F000369527959A95E1F72F7030E0322F222700
:101A00003069A901482BCA01C4CE89E390E0C1CE58
:101A100082EE90E0BECE86EE90E0BBCEBF92CF923B
:101A2000DF92EF92FF920F931F93CF93DF938C017E
:101A3000C0900103D0900203E0900303F0900403F0
:101A400080910E0390910F03A0911003B0911103A8
:101A5000C82AD92AEA2AFB2ACFE1D0E0BC2ED70136
:101A6000C6010C2E04C0B695A795979587950A9444
:101A7000D2F780FD0EC0219788F7B12C8B2DDF9116
:101A8000CF911F910F91FF90EF90DF90CF90BF907B
:101A90000895B8018C2F0E94650B019761F3EECF7A
:101AA000CF93DF93EC010E940E0DBE01DF91CF9129
:101AB0000C94650B0E94500D292F2F70E92FE29591
:101AC000EF70E250EE30E0F4F0E0E759F24F0C94A2
:101AD000DF31770D770D800D800D820D800D800D2B
:101AE000800D770D770D870D800D800D870D803F60
:101AF00019F020F4883E20F481E00895843FE1F35A
:101B000080E00895883EC0F3813FD1F7F5CF822F62
:101B100086958695869508959C019A95853198407D
:101B200040F4832F817031FD826033FD8860FB01BA
:101B30000994089527982F98089526982E98089527
:101B400025982D98089556985E980895279A2F9A6B
:101B50000895269A2E9A0895259A2D9A089584B16B
:101B6000807F84B985B1807F85B98AB1837F8AB946
:101B70008BB1837F8BB93E984698089580B38C7063
:101B800080BB81B3836F81BB0895CF93DF9300D077
:101B90001F92CDB7DEB790917D03943019F58983FC
:101BA0007B836A8382E08093E9008FEF9091E80065
:101BB000815095FD06C095ED9A95F1F700008111D1
:101BC000F5CF8091E80085FF0DC050E040E063E074
:101BD00070E0CE0101960E9455058091E8008E7755
:101BE0008093E8000F900F900F90DF91CF910895B0
:101BF000CF93DF93EC010E949006823011F0843085
:101C000031F4BE0184E0DF91CF910C94C50DDF91DA
:101C1000CF910895BC0183E00C94C50DCF93DF9361
:101C2000EC010E949006823011F08430F9F482E0D9
:101C30008093E9008FEF9091E800815095FD06C0F8
:101C400095ED9A95F1F700008111F5CF8091E800AC
:101C500085FF0CC050E040E066E070E0CE010E94DD
:101C600055058091E8008E778093E800DF91CF9151
:101C70000895CF93DF93EC010E949006823011F01B
:101C80008430B9F5809128018823B1F1809118033F
:101C900087FF32C060E282E08093E9008FEF90918D
:101CA000E800815095FD06C095ED9A95F1F700008A
:101CB0008111F5CF8091E80085FF1BC0809128013C
:101CC00070E050E040E0811104C050E040E068E086
:101CD00070E0CE010E9455058091E8008E778093D8
:101CE000E80080E2FE01ABE5B3E001900D928A9539
:101CF000E1F7DF91CF91089568E081E0CDCF0E94B8
:101D0000A30D0E94A00D0E949D0D0E949A0D8FEFC1
:101D100090E0909389008093880090938B0080934B
:101D20008A0090938D0080938C000E94AC0D2FEF61
:101D300080E792E0215080409040E1F700C0000031
:101D40000E94A90D2FEF80E792E021508040904043
:101D5000E1F700C000000E94A60D2FEF80E792E09F
:101D6000215080409040E1F700C000000E94A00D8B
:101D70002FEF80E792E0215080409040E1F700C0D3
:101D800000000E949D0D2FEF80E792E021508040DF
:101D90009040E1F700C000000E949A0D0E94A30D40
:101DA0000E94A00D0E949D0D0C949A0DCF9384E08B
:101DB00090E00E949533C82F81E290E00E94953315
:101DC000982F8C2FCF910895CF92DF92EF92FF92B0
:101DD0006B017C010E94770AB701A60188E090E0C0
:101DE000FF90EF90DF90CF900C94BB33809156031F
:101DF000833018F48F5F8093560360915203709183
:101E0000530380915403909155030C94E40E8091F8
:101E10005603882319F08150809356036091520332
:101E20007091530380915403909155030C94E40EE8
:101E3000E2E5F3E083E0808311828FEF8283838386
:101E4000148260817181828193810C94E40ECF931E
:101E5000C82F873070F580911B0190911C01892B50
:101E600089F564E670E080E40E94F13090931C01F3
:101E700080931B01892BD1F464E670E082E10E941B
:101E8000463190931C0180931B01892B79F481E0EA
:101E900090E001C0880FCA95EAF764E670E080958B
:101EA0000E94463190931C0180931B01CF910C94AA
:101EB00099318A30B9F040F4883071F0893079F086
:101EC000209A2898CF9108958C3091F070F08D3041
:101ED000B9F73E9A4698F6CF219A2998F3CF229ADD
:101EE0002A98F0CF239A2B98EDCF529A5A98EACF9E
:101EF000539A5B98E7CF0F931F93CF93DF93809113
:101F0000520380FD0BC0EBEBF1E0118210821282D4
:101F10001382349681E0E73FF807B9F70BEB11E045
:101F2000F80130812281632F321708F0622F70E0B0
:101F30004181842F90E0681779070CF4CB018383EB
:101F4000481B4183381B3083281B2283349691E041
:101F5000E73FF90731F70E94EB3064E670E084E870
:101F60000E94F130CBEBD1E064E670E088810E9402
:101F7000463164E670E089810E94463164E670E093
:101F80008A810E94463164E670E08B810E9446316E
:101F90002496E1E0C73FDE0739F70E949931579A4E
:101FA0008BB18F779BB190682FB7F894C017D1078A
:101FB00061F42FBF8FE594E00197F1F700C00000B6
:101FC000DF91CF911F910F910895F80131918F0109
:101FD00048E09BB9000000C037FF8BB9330F000009
:101FE00000C000C000C08BB900C04A9591F7DECF99
:101FF0008F929F92AF92BF92CF92DF92EF92FF9219
:102000000F931F93CF93DF93FC01B280948081E004
:102010008483C7EFD1E00BEB11E08BE4A82E88247A
:102020008394EE24EA94F12C2BE4C22ED12C91104F
:102030001DC01B821A8298014A81698188810E9491
:10204000860A25960C5F1F4F82E0C234D80779F7C5
:10205000DF91CF911F910F91FF90EF90DF90CF9084
:10206000BF90AF909F908F900C947B0F2B81222379
:1020700009F121502B833C818A2D821B311101C033
:10208000822F90915503899FC0011124B6010E94AF
:10209000B7316A83211104C0332311F01C82AB8253
:1020A00022E02B1540F280915303888380915403E2
:1020B0008983C1CF0E945332823091400CF0BBCF54
:1020C00082E08B15C0F40E945332B7010E94CB31DD
:1020D000888322E02B1590F40E9453322091540300
:1020E0002695622F70E00E94CB31280F29831A8237
:1020F000AB828C82A0CF80915303EACF209154030E
:10210000F5CFEF92FF921F93CF93DF93EC018BEB10
:10211000E82E81E0F82E10E08C8197014091550364
:1021200060915403810F0E94860A1F5E84E0E80ECE
:10213000F11C1F3F89F70E947B0F9A818C8190FFD1
:1021400008C08F5F8C83DF91CF911F91FF90EF903C
:1021500008958150F7CFBF92CF92DF92EF92FF9216
:102160000F931F93CF93DF93FC018281DD24D394DF
:1021700080FF02C0DD24DA940BEB11E0D0E0C0E078
:102180002FE0B22EF801118210821282138294E0A5
:10219000E92EF12CC12C8091B8018C0D80310CF40A
:1021A0003DC06B2D0E94A931892F082E000C990B80
:1021B000C817D90791F4809155038E9DA0018F9D7A
:1021C000500D112455954795559547959801609167
:1021D0005403809153030E94860ACD0CF1E0EF1A5C
:1021E000F108C9F621960C5F1F4FCF30D10551F68B
:1021F0000E947B0F8091B80191E0D91215C0811126
:1022000011C08EE08093B801DF91CF911F910F91A3
:10221000FF90EF90DF90CF90BF90089587FFC5CFDC
:10222000815FC3CF8150EECF90E00196BE010E9446
:10223000CB31E8CF0F931F93CF93DF93CBEBD1E05C
:10224000FE011182108212821382349681E0E73FF0
:10225000F807B9F710E000E08091B901082E000CF2
:10226000990B081719078CF180911601082E000CA4
:10227000990B801791074CF19E0140915503609195
:102280005403809153030E94860A0F5F1F4F2496C8
:102290000F30110509F70E947B0F80911501909175
:1022A000B901980F9093B90120911601280F20933E
:1022B0001601121614F49E301CF0819580931501BE
:1022C000DF91CF911F910F910895198218821A8280
:1022D0001B82DBCFEF92FF920F931F93CF93DF937D
:1022E000EC018C819D810196817099279D838C835F
:1022F0008BEBE82E81E0F82E10E005E5812F869526
:102300002C813D81820F932F911D81709701409107
:10231000550360915403809F802D11240E94860AEA
:102320001F5F84E0E80EF11C1F3041F7DF91CF9171
:102330001F910F91FF90EF900C947B0FEF92FF9203
:102340000F931F93CF93DF938C01CBEBD1E0F12C54
:10235000E12CF80194816091540380915303F7E0DC
:10236000EF16F104FCF49923F9F09E014091550316
:102370000E94860A2FEFE21AF20A24968FE0E816EE
:10238000F10439F70E947B0FF801848190E00196F7
:10239000817099278483DF91CF911F910F91FF90D6
:1023A000EF900895992309F39E0140E0E1CF9091C9
:1023B000520390FF0DC0EBEBF1E081836083428319
:1023C0001382349691E0E73FF907B9F70C947B0F3D
:1023D00008950F931F93CF93DF9300D000D0CDB714
:1023E000DEB78C018091BA0181110AC09E012F5F76
:1023F0003F4F4FEF6FEF0E94860A8A818093BA01A8
:10240000F8018481813069F038F04091BA0182305E
:1024100009F040E080E003C08091BA0140E060E054
:1024200004C06091BA0140E080E00E94D711F80139
:10243000848190E0019663E070E00E94CB31848358
:102440000F900F900F900F90DF91CF911F910F91F0
:102450000895CF93DF9300D000D0CDB7DEB7909131
:10246000520390FF0AC09E012F5F3F4F0E94860AD1
:102470004B8169818A810E94D7110F900F900F9034
:102480000F90DF91CF910895CF93DF93EC01EC8112
:10249000F0E0E65DFC4F4491E2E5F3E0628181818A
:1024A0000E9429128C818F5F8C83DF91CF910895D8
:1024B000CF93DF93EC01E2E5F3E0438162818C810D
:1024C0000E9429128C818F5F8C83DF91CF910895B8
:1024D0005F926F927F928F929F92AF92BF92CF92B4
:1024E000DF92EF92FF920F931F93CF93DF9300D071
:1024F00000D0CDB7DEB7182F762E042F622E909124
:10250000520390FF29C0E92FE695AE2FB0E0A75DFA
:10251000BE4F8C91809331039E7F923089F59E014E
:102520002F5F3F4F812F0E94860A4B8169818A81EC
:102530000E94D711109353037092540300935503D4
:10254000662051F0609152037091530380915403BF
:10255000909155030E94E40E0F900F900F900F90F2
:10256000DF91CF911F910F91FF90EF90DF90CF906F
:10257000BF90AF909F908F907F906F905F900895E5
:10258000823019F400915503D5CF863019F410919B
:102590005303D0CF8930D9F3893161F6E9518E2FB9
:1025A0008170582EE695F0E0EB5DFC4FA590B4905D
:1025B000BB248BEBE82E81E0F82ED12CC12C9FE0C0
:1025C000892E912CC601B4010E94B731812F511080
:1025D00013C0860F9701402F672D0E94860ACA0CF0
:1025E000DB1C84E0E80EF11C87EFE81681E0F806BA
:1025F00049F70E947B0F9ECF861BECCFE2E5F3E00C
:1026000043812CE0421B08F440E021E0628181819B
:102610000C946812E2E5F3E043812CE0420F08F4E9
:102620004FEF21E0628181810C946812E2E5F3E0D2
:1026300062812FEF621B08F460E021E04381818119
:102640000C946812E2E5F3E062812FEF620F08F468
:102650006FEF21E0438181810C946812E2E5F3E0A1
:10266000818121E0438162818C500C946812E2E503
:10267000F3E0818121E043816281845F0C946812E0
:1026800080E290E090931C0180931B018091B70140
:1026900081110EC00E94EB3081E08093B7012FEFD3
:1026A00083ED90E3215080409040E1F700C00000AE
:1026B00064E670E080E40E94F13090931C01809306
:1026C0001B01892B09F04EC064E670E080E00E9497
:1026D000463190931C0180931B01892B09F042C065
:1026E00064E670E080E00E94463190931C01809384
:1026F0001B01892BB9F564E670E08FE30E94463137
:1027000090931C0180931B01892B61F50E949931E4
:1027100064E670E080E40E94F13090931C018093A5
:102720001B01892BF9F464E670E08CE00E944631CD
:1027300090931C0180931B01892BA1F464E670E047
:1027400080E00E94463190931C0180931B01892BED
:1027500049F464E670E08FE30E94463190931C01D7
:1027600080931B010E94993180911B010895CF93A2
:10277000873050F580911B0190911C01C0E0892B9E
:1027800071F464E670E081E40E94F13090931C01E2
:1027900080931B01892B31F0C0E00E9499318C2F6E
:1027A000CF91089584E690E00E94753197FF05C0AF
:1027B00090931C0180931B01EFCFC82FC0951092FE
:1027C0001C0110921B01E9CFCFB18FB18695869580
:1027D0008C73C3708C2BC82FC095E1CF78941F9257
:1027E0000F920FB60F9211248F939F93AF93BF93C5
:1027F0008091120390911303A0911403B0911503DB
:102800000196A11DB11D8093120390931303A09311
:102810001403B0931503BF91AF919F918F910F90C7
:102820000FBE0F901F9018952FB7F8948091120348
:1028300090911303A0911403B09115032FBF089535
:10284000E0911A03F0911B03309749F082E08093E6
:102850003B030480F581E02D8BE393E009950E9412
:102860001414909336038093350308951092070350
:10287000109206030E94450986E0EBE3F3E0DF01D6
:102880001D928A95E9F710923803109216030E9460
:10289000201490E080E00E94500A90E080E00C94C8
:1028A0003A0ACF92DF92EF92FF920F931F938B0120
:1028B0009C0104711127222733276B017C0104310D
:1028C00011052105310509F07CC06894C5F80E9406
:1028D000A30D0E94A00D0E949D0D0E949A0DA701BC
:1028E0006627772780E1411551056105710519F4C7
:1028F000B701A60180E0052F162F272F33270115DA
:1029000011052105310519F0885FB901A8018A0177
:102910009B01F4E03695279517950795FA95D1F721
:10292000011511052105310519F08C5FB901A801C8
:102930008A019B01E2E03695279517950795EA9560
:10294000D1F7011511052105310519F08E5FB90187
:10295000A8017695679557954795452B462B472BAC
:1029600009F08F5F8330B1F178F58230C9F189E1E8
:1029700090E0909389008093880090938B008093DF
:102980008A0090938D0080938C00D701C6018471DA
:102990009927AA27BB274497A105B10521F568947B
:1029A000C5F8C0920103D0920203E0920303F092B3
:1029B00004031F910F91FF90EF90DF90CF900C9444
:1029C0003614E894C5F883CF843039F0853079F631
:1029D0000E94AC0D0E94A90DCACF0E94AC0DC7CFBA
:1029E0000E94A60DC4CFE894C5F8DBCF0F931F93C8
:1029F00041E050E060E070E004C0440F551F661FE6
:102A0000771F8A95D2F7CB01BA01609570958095B2
:102A100090950091010310910203209103033091DE
:102A2000040360237123822393231F910F910C943D
:102A30005114909105038095892380930503282FD5
:102A4000277071F4282F082E000C330B92171306F1
:102A500039F08595859585950E94F61410920503A9
:102A600008950F931F9341E050E060E070E004C0D0
:102A7000440F551F661F771F8A95D2F78091010377
:102A800090910203A0910303B09104038A019B017A
:102A9000082B192B2A2B3B2BC901B8011F910F9131
:102AA0000C94511460930E0370930F0380931003E2
:102AB000909311030C94361410920803809128010E
:102AC000E2E9F1E0882359F08091180387FF07C0FD
:102AD0008EE1DF011D928A95E9F70C94361486E0A9
:102AE000F8CF1F93CF93DF93CDB7DEB7AA970FB67A
:102AF000F894DEBF0FBECDBFEFE7F3E08091F100A9
:102B0000819323E0E738F207C9F78091800383308F
:102B100009F47CC008F5813009F453C0823009F40F
:102B2000BDC08091E80083FFF7C080917F03909142
:102B300080039A3008F0F0C0E92FF0E0EE55FA4E2D
:102B40000C94DF315F1685168C1685168C16E316ED
:102B500005178C160F181C188A3009F48EC08B309C
:102B600009F471C08930E9F680917F038132C9F69A
:102B70008091830390918403029798F68091E800F6
:102B8000877F8093E8008091E80082FF3AC08091BF
:102B9000F3009091F200892798278927029729F45A
:102BA0008091F1008B7F813021F48091F10080933E
:102BB0005A038091E8008B778093E8000E947F059C
:102BC000B0CF80917F03813A09F0ABCF8091E800CC
:102BD000877F8093E8008091830390918403892B01
:102BE00061F060E090E080E070E00E94310680914A
:102BF000E8008B778093E80094CF60E28BE593E068
:102C0000F3CF80917D038111BECF8BCF80917F0365
:102C1000813A09F086CF8091830390918403892BB8
:102C200009F07FCF8091E800877F8093E800809152
:102C3000E80080FFFCCF809128018093F100809113
:102C4000E8008E77B9CF80917F03813209F069CF98
:102C50008091830390918403892B09F062CF809146
:102C6000E800877F8093E8000E947F0580918103C0
:102C7000809328010E945C1554CF80917F0381329C
:102C800009F04FCF8091E800877F8093E8000E9491
:102C90007F05809182038093590343CF80917F0306
:102CA000813A09F03ECF8091E800877F8093E80069
:102CB0008091E80080FFFCCF80915903BECF80381F
:102CC00089F0823849F5809183038F70873020F531
:102CD0008093E9008091EB0085FB882780F91092B2
:102CE000E90006C080917B0390917C039111826082
:102CF0009091E800977F9093E8008093F100109204
:102D0000F1008091E8008E772DC0282F2D7F21F4CF
:102D10008823D1F0823059F18091E80083FF0AC006
:102D20008091E800877F8093E8008091EB008062CB
:102D30008093EB00AA960FB6F894DEBF0FBECDBF0E
:102D4000DF91CF911F91089580918103813021F708
:102D5000933009F080E080937C031092E900809129
:102D6000E800877F8093E8000E947F05D5CF80919F
:102D700081038111F2CF809183038F702FEF280F91
:102D8000263050F68093E9002091EB0020FFE5CF3C
:102D9000933031F48091EB0080628093EB00DDCFC3
:102DA0009091EB0090619093EB0021E030E001C046
:102DB000220F8A95EAF72093EA001092EA008091A8
:102DC000EB008860EACF8111A7CF109181031F77B4
:102DD0008091E3008078812B8093E3008091E8006C
:102DE000877F8093E8000E947F058091E80080FF44
:102DF000FCCF8091E30080688093E30083E01111B1
:102E000001C082E080937D0387CF8058823008F034
:102E100083CF80918103909182038C3D23E09207C0
:102E2000A1F583E08A838AE289834FB7F894DE01B3
:102E3000139620E03EE051E2E32FF0E0509357007C
:102E4000E49120FF03C0E295EF703F5FEF708E2F9B
:102E500090E0EA30C0F0C7968D939D932F5F2431A8
:102E600059F74FBF8091E800877F8093E8006AE2BE
:102E700070E0CE0101960E9431068091E8008B77C8
:102E80008093E80049CFC096E7CF409183035091EB
:102E90008403292F33272330310509F444C078F502
:102EA0002130310509F479C08BE390E0EEE2F9E0DE
:102EB0002230310509F030CF2091E800277F2093A0
:102EC000E80020918503309186038217930708F468
:102ED0009C0140E02115310509F06EC041116CC024
:102EE0008091E80082FDC9CF80917D03882329F27B
:102EF000853019F28091E80083FFF2CFBECF2132F6
:102F0000310509F43EC02232310509F005CF4115E3
:102F1000510509F44CC08CEB90E0E2E3F8E041305D
:102F2000510551F2F9CE992781309105D1F070F019
:102F300082309105F1F0039709F0EECEEBE7F9E06E
:102F4000E4918E2F90E0EBE7F9E007C0EBECF9E0BD
:102F5000E4918E2F90E0EBECF9E0009709F4DCCEE1
:102F6000ABCFE9E9F9E0E4918E2F90E0E9E9F9E0EF
:102F7000F4CFE1E8F9E0E4918E2F90E0E1E8F9E0A8
:102F8000ECCF4115510571F089E090E0E9E5F9E0F9
:102F90004130510509F490CFBFCE82E190E0E9E6DF
:102FA000F9E08ACF89E090E0E0E4F9E085CF80E4C1
:102FB00090E0EEEEF8E080CF80917D03882309F465
:102FC0005CCF853009F459CF8091E80083FD55CF5F
:102FD0008091E80082FD84CF8091E80080FF7ACF65
:102FE0008091F3009091F200892798278927211575
:102FF000310519F08830910550F041E0089709F04B
:1030000040E08091E8008E778093E80063CF4491A0
:103010004093F1003196215031090196E8CF803874
:1030200009F07ACE8091E800877F8093E800809154
:103030007E038093F10065CE81116ECE10918103E5
:10304000123008F069CE8091E800877F8093E80015
:1030500010937E030E947F05112371F084E080931A
:103060007D0342E061EC81E00E949E0542E261EC5A
:1030700082E00E949E0550CE8091E30087FDEECF56
:1030800081E0EDCF1F920F920FB60F9211242F9374
:103090003F934F935F936F937F938F939F93AF93E0
:1030A000BF93CF93EF93FF93C091E900CF708091CE
:1030B000EC001092E9008091F000877F8093F0008F
:1030C00078940E9471151092E9008091F000886058
:1030D0008093F000C093E900FF91EF91CF91BF91F1
:1030E000AF919F918F917F916F915F914F913F91A0
:1030F0002F910F900FBE0F901F9018950F931F9355
:1031000041E050E060E070E08A019B0104C0000FE4
:10311000111F221F331F8A95D2F7C901B8010E94DF
:1031200052151F910F910C945C150E945C152FEFA6
:1031300084E39CE0215080409040E1F700C0000013
:10314000F89481E08093E00080E28093D800E9EC7D
:10315000F0E010828FE19EE40197F1F700C00000DB
:103160001DBA109268001CBC10BE1FBA10927A00E3
:1031700010926E0010926F00109271001092720007
:103180001082ECEBF0E0108214B817B81AB81DB832
:1031900010BA108215B818B81BB81EB811BA0C9422
:1031A000003F08958823B1F19CEF980F913A38F4CD
:1031B000682F80E991E00E94E0080C94450990E2B4
:1031C000980F983088F4877021E030E0A90102C0A0
:1031D000440F551F8A95E2F7CA0180959091080324
:1031E000892380930803E9CF9BE5980F933020F45F
:1031F00090E080E00C94500A98E5980F973120F405
:1032000090E080E00C943A0A803F20F00E94620730
:103210000C942014089560915203669570E04BE081
:1032200050E08AE091E00E948833892B19F481E014
:10323000809332030E94141490932C0380932B03E9
:1032400008959091520390FF36C09170811129C06A
:10325000926090935203662351F0609152037091F3
:10326000530380915403909155030E94E40E6091A2
:103270005203669570E04BE050E08AE091E00E94D6
:103280008833892BA9F01092320381E080932E03BA
:1032900020E04091550360915403809153030C94B6
:1032A00068128B3210F09465D4CF880F982BD1CF51
:1032B0000E940B19EACF089582E084BD93E095BD8A
:1032C0009AEF97BD80936E000E94401390E0909318
:1032D0001C0180931B010E94AF0D0E94BE0DEDE109
:1032E000F3E0AAE4B2E08BE293E011921D928E1714
:1032F0009F07D9F78EE090E00E94633280934802E6
:1033000090934902FC010E962BEF2193E817F907E1
:10331000E1F790E080E00E94A3338C3E9E4F11F0D5
:103320000E94311A8CE090E00E94953390E0B0E06A
:10333000A0E080937B0290937C02A0937D02B093E7
:103340007E0289EA8093800089E08093810024983E
:103350002C983F988AB18F7C8AB96E98479A8BB126
:1033600080638BB9769A8FE090E00E949D336093E2
:103370000A0370930B0380930C0390930D03677003
:103380008FEF689FB00111247595679575956795C6
:103390007727709389006093880070938B00609307
:1033A0008A0070938D0060938C000E947F0E90E0E5
:1033B00080E00E94A3338C3E9E4F11F00E94311A90
:1033C00082E090E00E949533809342030E94D60EE3
:1033D000909319038093180383E090E00E94953343
:1033E000682F70E090E080E00E94521580915802B2
:1033F000811136C090E080E00E94A3338C3E9E4F46
:1034000021F00E94311A0E94180F88E090E00E947B
:103410009D336093520370935303809354039093AE
:1034200055036E7F71F40E94180F88E090E00E94AF
:103430009D3360935203709353038093540390938E
:1034400055030E94770A109232038091520380FF45
:1034500004C060E086950E94211981E080935802A3
:1034600008956CEE7EEF90E080E00E94C73360E04C
:1034700082E090E00E94A93360E083E090E00E9447
:10348000A93310920E0310920F03109210031092A2
:10349000110360E084E090E00E94A93360E081E2E3
:1034A00090E00E94A93360E085E090E00E94A9339B
:1034B00060E086E090E00E94A9336FEF87E090E043
:1034C0000E94A93340E050E0BA0188E090E00E94F9
:1034D000BB3360E08DE090E00E94A93340E050E013
:1034E000BA0188E190E00E94BB3360E087E190E0A0
:1034F0000E94A93340E050E0BA018CE190E00E94C4
:10350000BB3360E080E290E00E94A93310920A038E
:1035100010920B0310920C0310920D0384E0806153
:1035200080930A0340910A0350910B0360910C03AE
:1035300070910D038FE090E00E94BB330C945C19F6
:10354000EBEFE80FEF3308F09BC0F0E0E655F54EE7
:103550000C94DF31F71AED1AFA1AEB1A401B401BD4
:10356000EB1A401B401B171B401B221B2D1B401B33
:10357000401B401B401BEB1A401B401BEB1A401B1F
:10358000091B401B401B3E1B3E1B3E1B3E1B3E1BA4
:103590003E1B3E1B3E1B3E1B381B401BF71AE91A05
:1035A000401B401B401B401B401B401B401B401B43
:1035B000401B401B381B401B401BEB1A401B3C1B95
:1035C0003C1B3C1B3C1B3C1B3C1B3C1B3C1B3C1B43
:1035D000381B0E94311A81E0089580914203817F57
:1035E0008E7F8093420381E08093170308950E94A9
:1035F0009518F1CF90914203892F8E7F90FF8160C3
:103600008093420380FDE7CF897F877F80934203C9
:10361000E2CF90914203892F8D7F91FF826080934A
:10362000420381FFD8CF809142038160EFCF909118
:103630004203892F8B7F92FF84608093420382FD37
:10364000F2CFC9CF90914203892F877F93FF886083
:103650008093420383FDE7CFBECF0E945C1590911B
:103660001803892F97FB87F9805880931803B3CFED
:1036700080E00E947E18AFCF8953FBCF8D51F9CFE8
:1036800080E00895CF93C82F882309F468C08CEF99
:103690008C0F813A08F0B9C0809117038130D1F1C5
:1036A00068F1823009F453C0109217038091280109
:1036B000882309F497C08091180387FF93C0EC2FEB
:1036C000E695E695E695F0E0E057FE4F828190E0C2
:1036D0004C2F477021E030E002C0220F331F4A9583
:1036E000E2F782239323892B09F487C06C2F80E9AA
:1036F00091E00E94E0080E9445097FC08091080384
:10370000813111F0823291F68C2F0E94A01A811122
:1037100026C0CCCF809108038131B1F38232A1F36E
:10372000C43171F038F4CB3049F0C03161F080E041
:103730008170EDCFC93221F0C833C9F781E0F8CFED
:1037400010921703F4CF82E080931703F7CFC932AA
:1037500021F190F4C43109F120F4C73089F1CF91FF
:103760000895CE51C630D8F7EC2FF0E0EC5AFE4F5A
:10377000808180939102F3CFCE3401F140F46AE06E
:10378000CB3469F780919102CF910C94EC06C1354E
:1037900079F061E0C235B1F3E2CF809191028823E4
:1037A00019F010929102DBCF81E080931703D7CFFD
:1037B00061E080919102CF910C949C066AE0F9CF70
:1037C0001092370384E180931D0187E080931A01F2
:1037D0008CE38093190188E08093180188E280933C
:1037E0001701BDCFE2E9F1E088E991E02191C2172C
:1037F00009F47CCF8E179F07C9F76C2F80E991E001
:103800000E940A09CF910C94450980E28C0F883000
:1038100068F4C77021E030E001C0220FCA95EAF7D2
:1038200080910803822B80930803ECCFEBE5EC0F2B
:10383000E33040F4F0E0E25AFE4F808190E0CF9117
:103840000C94500AE8E5EC0FE73150F4F0E0EE0F8D
:10385000FF1FEF59FE4F80819181CF910C943A0A5E
:10386000C03F08F47CCF8C2F0E946908CF910C9444
:103870002014CF93C82F0E94421BC93349F42FEF65
:1038800087EE93E0215080409040E1F700C00000B7
:103890008C2FCF910C94D2180F931F93CF93DF935B
:1038A000C62FD42F022FFC0182818823A1F06093C0
:1038B0008D020E9414149093430280934202C770B9
:1038C00081E001C0880FCA95EAF7DF91CF911F917F
:1038D0000F910C94300A10918D02161335C080910F
:1038E0004202909143020E94D108883C910560F504
:1038F000C0E2CD0F1D17B9F080E2810F883040F48F
:10390000177081E001C0880F1A95EAF70E94250A16
:10391000C83008F581E09D2F977001C0880F9A95F7
:10392000EAF70E94300A802F0E94391CC830D0F478
:10393000D77081E001C0880FDA95EAF7DF91CF9167
:103940001F910F910C94250AC77081E001C0880F68
:10395000CA95EAF7F3CF802FDF91CF911F910F9196
:103960000C94391CDF91CF911F910F910895CF9244
:10397000DF92EF92FF920F931F93CF93DF93EC01AF
:103980008AE0C82EFE018491882309F483C0813027
:1039900009F040C031968491813051F42296FE01A5
:1039A0001491812F0E94421B812F0E94D21807C0C0
:1039B000823039F42296FE0184910E94421B2196A6
:1039C000E1CF833021F42296FE018491EECF843042
:1039D00009F05EC02296FE01249190E080E0FE0195
:1039E00031962053330B2A30310548F0019738F3D4
:1039F000EFE9FFE03197F1F700C00000F7CFC89E74
:103A0000A001C99E500D1124C901840F951F249156
:103A1000EF01E5CFE82FF0E0EB55FE4FD490082FF3
:103A200006950695069510E0F801EB56FE4FE490DA
:103A30008770F12C082E02C0F594E7940A94E2F7FF
:103A400021E0E222FF240B571E4FF801049110E001
:103A500002C0159507958A95E2F701701127E114C8
:103A6000F10419F081EE0E94421B0115110519F0B5
:103A700086EE0E94421B8D2D0E94391C012B19F0ED
:103A800086EE0E94D21881EEEF2809F498CF8DCFF0
:103A9000EF0195CFDF91CF911F910F91FF90EF90A4
:103AA000DF90CF9008950F931F93CF93DF93EC0196
:103AB0008C01005E110960E37AE00830110510F016
:103AC0006BE17AE0CE010E948C0D8C2F0E94421B8C
:103AD0008C2F0E94D21865E27AE00830110510F0B0
:103AE00060E17AE0CE01DF91CF911F910F910C94AC
:103AF0008C0D1F920F920FB60F9211242F933F93AC
:103B00004F935F936F937F938F939F93AF93BF93E5
:103B1000EF93FF938091E10082FF09C08091E20062
:103B200082FF05C08091E1008B7F8093E10080914E
:103B3000DA0080FF24C08091D80080FF20C08091EF
:103B4000DA008E7F8093DA008091D90080FFAEC0CA
:103B500080E189BD82E189BD09B400FEFDCF81E02D
:103B600080937D0380915103811109C00E94070554
:103B70000E94D0058091E20084608093E2008091F1
:103B8000E10080FF17C08091E20080FF13C08091A8
:103B9000E2008E7F8093E2008091E200806180935A
:103BA000E2008091D80080628093D80019BC85E043
:103BB00080937D038091E10084FF3CC08091E2000E
:103BC00084FF38C080E189BD82E189BD09B400FE6F
:103BD000FDCF8091D8008F7D8093D8008091E10047
:103BE0008F7E8093E1008091E2008F7E8093E200DF
:103BF0008091E20081608093E20080917E038823BF
:103C000009F45AC084E080937D030E945C150E94F1
:103C1000660A1092580380915703882349F08091D7
:103C2000520381608093520360E086950E942119BF
:103C30000E940B198091E10083FF27C08091E20070
:103C400083FF23C08091E100877F8093E10082E0C1
:103C500080937D0310927E038091E1008E7F80939C
:103C6000E1008091E2008E7F8093E2008091E2008B
:103C700080618093E20042E060E080E00E949E0567
:103C80008091F00088608093F000FF91EF91BF91E8
:103C9000AF919F918F917F916F915F914F913F91E4
:103CA0002F910F900FBE0F901F90189519BC109276
:103CB0007D031092510363CF8091E30087FD02C022
:103CC00081E0A1CF83E09FCF809152038695815000
:103CD00009F48AE261E00C942119809152038695DF
:103CE0008F5F8B3208F081E061E00C942119909194
:103CF000520390FF07C09695981720F0961710F47E
:103D00000C946D1E61E00C9421192F923F924F92FA
:103D10005F926F927F928F929F92AF92BF92CF925B
:103D2000DF92EF92FF920F931F93CF93DF93CDB764
:103D3000DEB72F970FB6F894DEBF0FBECDBF3C01A4
:103D4000DC011C911196FC90119713968D919C911A
:103D5000892B41F0BFEFFB1203C081E01F3F19F038
:103D600080E001C081E0E82FE170EF8780FD4AC765
:103D700085E0F301DE01169601900D928A95E1F738
:103D8000D30112962C918E819F81222309F44DC07C
:103D90000E940E0D082F682F8E819F810E94B60908
:103DA000E12FF0E0B6E0FB9EE00DF11D112424E5CB
:103DB000029FE00DF11D1124EE0FFF1FE35DFB4F8D
:103DC000A591B491BE87AD874D01CD018150954538
:103DD000ED85FE858F3F910518F4FD01B5E5FB27C4
:103DE000D30112968C91882309F43AC3EF3FF10571
:103DF00009F008F449C0EF3DFC45D9F01092790272
:103E0000AD85BE85AA30EDE5BE0708F488C0AC30AC
:103E1000FDE5BF0708F4BFC3AC30BD4509F07FC066
:103E20008AE294E00E94B71C76C00E948A09082F9B
:103E3000B7CF8091790291E08927809379028091B0
:103E40000503877009F4DEC6F3018281882309F433
:103E5000D9C682E02F960FB6F894DEBF0FBECDBF55
:103E6000DF91CF911F910F91FF90EF90DF90CF9056
:103E7000BF90AF909F908F907F906F905F904F908A
:103E80003F902F900C94191580917902882309F4A2
:103E900083C110927902E03CF10508F0D6C0E03809
:103EA000F10508F043C1E034F10508F009C121E053
:103EB00030E040E050E060E070E080E090E00E2F05
:103EC0000E94E531A09159022A2BA0915A023A2B67
:103ED000A0915B024A2BA0915C025A2BA0915D023B
:103EE0006A2BA0915E027A2BA0915F028A2BA0918F
:103EF00060029A2B2093590230935A0240935B023E
:103F000050935C0260935D0270935E0280935F0247
:103F1000909360024F01F3018281882369F0C4010C
:103F2000835E9C45059740F46DE1680D60937B02CC
:103F30008CE090E00E94A93397FE50C0D301129606
:103F40008C91882309F44AC08091080380937A02F7
:103F50001092080380917B02813009F43AC308F47F
:103F600034C3823009F43AC3843009F43EC3EFE32A
:103F7000FCE93197F1F700C0000084011F776CE085
:103F8000E62EF12C98010E2C02C0369527950A9446
:103F9000E2F72F7087E290E031F0822F90E02A3034
:103FA00008F028C34D960E94391CF4E0EF1AF1087E
:103FB0002CEFE2162FEFF20629F780917B02813079
:103FC00009F41EC308F418C3823009F415C3843001
:103FD00009F41AC380917A0280930803D3011296E0
:103FE0008C91882309F47FC380918C02882309F483
:103FF00010C380918A0290918B020E94D1088A3F5F
:10400000910508F070C3C40190568115B0E29B077A
:1040100020F0905E8115904108F4992480918902E6
:10402000853008F0F3C2E82FF0E0EE0FFF1FE158F3
:10403000FD4F918280828F5F809389020E941414C9
:1040400090938B0280938A02FACEEF3FF10511F034
:1040500008F02DCF8F01005C110921E030E040E035
:1040600050E060E070E080E090E00E94E531A091D7
:1040700071022A2BA09172023A2BA09173024A2B53
:10408000A09174025A2BA09175026A2BA09176021E
:104090007A2BA09177028A2BA09178029A2B2093F9
:1040A00071023093720240937302509374026093D2
:1040B00075027093760280937702909378022ACFEC
:1040C0008F010054110921E030E040E050E060E051
:1040D00070E080E090E00E94E531A09161022A2B1F
:1040E000A09162023A2BA09163024A2BA091640234
:1040F0005A2BA09165026A2BA09166027A2BA0919F
:1041000067028A2BA09168029A2B20936102309358
:10411000620240936302509364026093650270935D
:1041200066028093670290936802F4CE8F01005874
:10413000110921E030E040E050E060E070E080E014
:1041400090E00E94E531A09169022A2BA0916A02B9
:104150003A2BA0916B024A2BA0916C025A2BA09192
:104160006D026A2BA0916E027A2BA0916F028A2BAE
:10417000A09170029A2B2093690230936A024093B7
:104180006B0250936C0260936D0270936E02809389
:104190006F0290937002BECEE034F10508F06BC060
:1041A000A0915902B0915A0220915B022B87809115
:1041B0005C028C8750905D0240905E0230905F02FE
:1041C0002090600221E030E040E050E060E070E0EC
:1041D00080E090E00E2F0E94E531A22EAA22B32E9D
:1041E000BB22CB84C422DC84D522E62EE520F72E28
:1041F000F420082F0321192F12210E94FE3109F00B
:10420000FFCDE03CF10508F096C0E038F10508F07C
:10421000F7C0E034F10508F0C3C021E030E040E031
:1042200050E060E070E080E090E00E2F0E94E53109
:104230002095309540955095609570958095909516
:104240002A233B23AB854A23BC855B23652174214C
:10425000832129222093590230935A0240935B0212
:1042600050935C0260935D0270935E0280935F02E4
:1042700020926002E4CDE038F105F0F4A0916102F3
:10428000B0916202909163029B87209164022C8717
:10429000509065024090660230906702209068025C
:1042A00021E030E040E050E060E070E080E090E04D
:1042B0008F01005411098FCFE03CF105F0F4A0917B
:1042C0006902B0916A0280916B028B8790916C02B7
:1042D0009C8750906D0240906E0230906F0220904B
:1042E000700221E030E040E050E060E070E080E00B
:1042F00090E08F01005811096ECFA0917102B0912A
:104300007202209173022B87809174028C875090E7
:10431000750240907602309077022090780221E07A
:1043200030E040E050E060E070E080E090E08F013D
:10433000005C110950CFEF3FF10511F008F06DCF8F
:104340008F01005C110921E030E040E050E060E0C6
:1043500070E080E090E00E94E53120953095409536
:10436000509560957095809590952A233B23EB8519
:104370004E23FC855F23652174218321292220930C
:1043800071023093720240937302509374026093EF
:1043900075027093760280937702209278024FCD57
:1043A0008F010054110921E030E040E050E060E06E
:1043B00070E080E090E00E94E531209530954095D6
:1043C000509560957095809590952A233B23EB85B9
:1043D0004E23FC855F2365217421832129222093AC
:1043E00061023093620240936302509364026093CF
:1043F00065027093660280936702209268021FCD67
:104400008F010058110921E030E040E050E060E009
:1044100070E080E090E00E94E53120953095409575
:10442000509560957095809590952A233B23AB8598
:104430004A23BC855B236521742183212922209393
:10444000690230936A0240936B0250936C0260934E
:104450006D0270936E0280936F0220927002EFCC17
:10446000EF3FF10511F008F094C0E034F10508F0D9
:1044700040C04090590250905A02A0915B02AB8715
:10448000B0915C02BC87B0915D02A0915E02209069
:104490005F023090600221E030E040E050E060E0F8
:1044A00070E080E090E00E2F0E94E53159016A0132
:1044B0007B018C0124213B2D35214B854C215C85D2
:1044C0005D216B237F2D7A23E1E08221912F9321BF
:1044D0000E94FE3109F4E0E0E0FFB1CCAD85BE857D
:1044E000AD30BD4509F017CD84E199E00E94531D20
:1044F00012CDE038F105F0F4409061025090620274
:10450000A0916302AB87B0916402BC87B091650251
:10451000A091660220906702309068028F010054DB
:10452000110921E030E040E050E060E070E080E020
:1045300090E0BACFE03CF105B0F4409069025090B1
:104540006A02A0916B02AB87B0916C02BC87B091FC
:104550006D02A0916E0220906F02309070028F0168
:1045600000581109DECF4090710250907202A09164
:104570007302AB87B0917402BC87B0917502A091B1
:10458000760220907702309078028F01005C11094A
:10459000C8CFE1E0A1CF8D858A5001E010E002C0D4
:1045A000000F111F8A95E2F7602F83E090E00E94D0
:1045B000A933B80190E080E00E94521561E070E0FC
:1045C00080E090E00E945114A6CC82EE0E94421B33
:1045D000CECC88E193E00E94531DC9CC82EE0E94AC
:1045E000421B87E50E94391CC2CC86EE0E94391C12
:1045F00088E1F8CF0697D7CC82EE0E94D218EACC99
:104600008CE20E94391CE6CC88E2FBCF10928C022F
:1046100015CDF7E18F16FCE59F0609F040C581E056
:1046200080938C020E94141490938B0280938A02D0
:1046300010928902EFE7F2E08AE0DF011D928A958D
:10464000E9F7F3019281992309F452C510928D0282
:10465000F2E08F16FCE59F0608F45BC526E18216A2
:104660002CE5920630F0C4018C5F9C45099708F058
:1046700050C50E94D60E909319038093180380E1D1
:1046800088168CE5980609F430C108F0AAC0A8E0A5
:104690008A16ACE59A0609F412C108F07AC0E4E083
:1046A0008E16ECE59E0609F400C108F05CC022E01D
:1046B00082162CE5920609F4EEC083E088168CE59C
:1046C000980609F4EEC0609118031091190384E074
:1046D00090E00E94A933612F81E290E00E94A9330B
:1046E0000E945C15ACCBB5EF8B16BCE59B0661F167
:1046F000B8F4F9ED8F16FCE59F0611F12AED82164C
:104700002CE5920669F188ED88168CE5980609F08B
:1047100098CF26E241EE61EEC3010E944C1C8FCB84
:1047200097EF89169CE59906B9F090F0B8EF8B16D3
:10473000BCE59B0609F085CF27E245EE66EEECCF9F
:1047400027E245EE65EEE8CF26E241EE60EEE4CFEB
:1047500027E245EE64EEE0CF26E241EE62EEDCCFEA
:1047600028E241E0EFCF80911803806196E089163E
:104770009CE5990609F492C0809118038860A7E02F
:104780008A16ACE59A0608F489C080911803806205
:1047900085C0809118038D7FBCE08B16BCE59B061D
:1047A00009F47CC060F4FAE08F16FCE59F0609F47A
:1047B00090C008F488C0809118038E7F6FC08EE08F
:1047C00088168CE5980609F488C0809118039FE04C
:1047D00089169CE5990608F493C0809118038F7E92
:1047E0005DC0ADEF8A16ACE59A0609F462C058F5D3
:1047F000E3E18E16ECE59E0609F47FC090F421E11A
:1048000082162CE5920609F474C082E188168CE5C4
:10481000980609F058CF0E945C15809118038F7795
:104820003DC095E189169CE5990609F46FC008F42E
:1048300083C080911903BCEF8B16BCE59B0609F081
:1048400042CF816039C0E1E08E16EDE59E0609F4A5
:1048500059C068F4809119038D7F2FEF82162CE5E3
:10486000920651F1F0F1809119038260EACF93E052
:1048700089169DE5990609F468C008F453C060E004
:10488000B4E08B16BDE59B0609F01DCF8EE090E0ED
:104890000E94A93318CF8091180381608093180378
:1048A00012CF809118038260F9CF80911803846041
:1048B000F5CF8091190382608093190304CF809112
:1048C00018038064EBCF0E945C1580911803806808
:1048D000E5CF809118038860EACF80911803877F25
:1048E000DDCF809119038E7FE7CF809118038F7DF4
:1048F000D5CF809118038F7BD1CF80911803877F0C
:104900008B7FCCCF809119038D7FEDCF80911803E1
:1049100082FB992790F921E0922790FB82F990FB86
:1049200083F9BCCF80911903982F909591708E7F59
:10493000892B90FB81F9C0CF0E945C1590911803E0
:10494000892F97FB87F98058A9CF61E09FCF8A7A9A
:1049500091E009F490E090938E0265E3811101C02B
:1049600069E280E991E00E940A090E94450967CA4C
:104970008091520380FF1BC08E7F80935203609111
:1049800052037091530380915403909155030E94F8
:10499000E40E10923203EFEFF0E722E0E150F04036
:1049A0002040E1F700C000000E947B0F48CA8160F0
:1049B0008093520361E086950E94211940CA44E623
:1049C0005EE16DE67EE10E94720A39CA4DE65EE163
:1049D00064E67EE1F8CF4EE253E167E373E1F3CFA3
:1049E00047E353E16EE273E1EECF46E153E162E269
:1049F00073E1E9CF42E253E166E173E1E4CF4EEFC8
:104A000052E16AE073E1DFCF4AE053E16EEF72E119
:104A1000DACF47E05FE066EF7EE0D5CF46EF5EE0BD
:104A200067E07FE0D0CF61E081E0C6CF65E082E063
:104A30000E94771E04CA68E086E0FACF6EE089E043
:104A4000F7CF64E18FE0F4CF67E185E1F1CF61E07A
:104A500088E1B2CF62E289E1EBCF61E083E2ACCFE3
:104A600081148CE5980609F455C0A0EE8A16ACE5D1
:104A70009A0609F452C0D3010D911C91992309F4AF
:104A80004FC0C8010E940E0DF82E682FC8010E9469
:104A9000B609B8018F2D0E94650B8C01C82EF30159
:104AA000E580E2944FE0E422F280F11010920703D7
:104AB000809105038770A1F0FF2089F0812F807F0E
:104AC000803421F080E2800F883050F082E00E9434
:104AD0001915809105038770F1E0FF8781111F860A
:104AE000D12ED2943FE0D3222BE02D1508F400C143
:104AF000ED2DF0E0E258FA4D0C94DF319525952527
:104B0000212621267126902678267826D226A927C6
:104B1000BA27BA270E94951892C90E94311A8FC9E4
:104B2000C8010E948A09F82EB4CF812F8F70E82E19
:104B3000107F19F0E29420EFE222802FFF20C9F0CD
:104B4000EE2069F090E2900F983010F001110BC048
:104B500080910803E82AE09208030E944509802F0B
:104B60000E94421B17C080910703E82AE0920703C6
:104B7000F4CF0E94D218EE2069F0E094005E083075
:104B800010F0C11058C080910803E822E092080399
:104B90000E9445098F858823B1F08091050380FD2F
:104BA00012C0D30112961C928595859585950E9419
:104BB0003115C3010E94851E809105038595859559
:104BC00085950E94F61485E0F301DE0111960190AF
:104BD0000D928A95E1F789819A810E948A099A81CA
:104BE000E981F0E0B6E09B9FE00DF11D112424E582
:104BF000829FE00DF11D1124EE0FFF1FE35DFB4FBF
:104C0000859194912F960FB6F894DEBF0FBECDBF5D
:104C1000DF91CF911F910F91FF90EF90DF90CF9098
:104C2000BF90AF909F908F907F906F905F904F90CC
:104C30003F902F90089580910703E822E0920703A8
:104C4000A7CF912F9F70D92E107F103219F0D294D8
:104C500090EFD922CC2041F0A1E0CA1631F1FF201B
:104C600079F1EE2041F17BCFFF2091F09091090383
:104C70008D2D892BE11003C00E94300A8BCFB1E04B
:104C8000EB12FACF891709F485CF8093090382CFFD
:104C9000E11006C00E943F098D2D0E94250A7ACF9F
:104CA000E1E0EE1609F476CFF5CFFF2031F0F1E028
:104CB000FE1508F46FCF8D2DDFCFE1106BCFECCF59
:104CC000EE2051F3093349F42FEF87EE93E02150A2
:104CD00080409040E1F700C00000802F0E94D21871
:104CE00059CF812F86958695837041F0813079F078
:104CF00088EF8D0D843008F04DCF9FC0C8019370B0
:104D0000F11002C090E080E00E94500A43CFC80139
:104D10009370F11002C090E080E00E943A0A3ACF0E
:104D2000FF2009F1053F99F0063FB9F0043F49F42F
:104D300080918F0290919002816090939002809375
:104D40008F02802F0E9469080E94201423CF809137
:104D50008F02909190028260F0CF80918F029091AB
:104D600090028460EACF053F89F0063FA9F0043F36
:104D700049F480918F02909190028E7F90939002DF
:104D800080938F02802F0E946207DECF80918F0276
:104D9000909190028D7FF2CF80918F02909190023E
:104DA0008B7FECCF812F837009F068C0F11045C074
:104DB000802F829586958770880F880F602F6F707F
:104DC000C62ED12CF12CE12C082E04C0CC0CDD1CFD
:104DD000EE1CFF1C0A94D2F740E050E0BA0104FF39
:104DE0000FC04FE050E060E070E004C0440F551F7A
:104DF000661F771F8A95D2F74095509560957095FC
:104E0000812F869586958370823029F1E8F4009190
:104E10000E0310910F032091100330911103813084
:104E200079F04C295D296E297F29CB01BA016023D5
:104E30007123822393230E9452150E94660AAACEF0
:104E4000C02AD12AE22AF32ACB01BA016C297D2992
:104E50008E299F29F0CF4C295D296E297F29009149
:104E60000E0310910F032091100330911103CB0119
:104E7000BA016027712782279327DDCF8695FF200F
:104E800011F0812F81708823C1F2802F8295869541
:104E90008770880F880F602F6F70C62ED12CF12C71
:104EA000E12C082E04C0CC0CDD1CEE1CFF1C0A9467
:104EB000D2F740E050E0BA0104FF0FC04FE050E0ED
:104EC00060E070E004C0440F551F661F771F8A958D
:104ED000D2F74095509560957095812F869586956F
:104EE0008370823019F1D8F400910103109102030C
:104EF0002091030330910403813069F04C295D292E
:104F00006E297F29CB01BA01602371238223932369
:104F10000E94511492CFC02AD12AE22AF32ACB014F
:104F2000BA016C297D298E299F29F2CF4C295D2950
:104F30006E297F2900910103109102032091030340
:104F400030910403CB01BA01602771278227932790
:104F5000DFCF1F70FF2039F0812F0E943115802F85
:104F60000E94300A6ACF802F0E94250A812F0E945A
:104F7000F61463CF802FA2EFCA1609F455C0AC1502
:104F800088F0B0EFCB1629F1E1EFCE1609F445C059
:104F9000FF2009F470C0EE2009F46AC0802F0E943F
:104FA000421BA6CEF3EFCF1609F445C024EFC21280
:104FB000EFCFFF2009F451C01F71812F0E943115DE
:104FC000A8E01A9FC0011124836080930503812FFC
:104FD00028C0FF20E9F0E1108BCE1F7161E070E086
:104FE00080E090E004C0660F771F881F991F1A9514
:104FF000D2F7009101031091020320910303309135
:10500000040360277127822793270E94511470CED2
:1050100081E08E1508F46CCEE0CF812F8F71FF20D8
:1050200039F00E94311564CE812F8F71FF20C9F3B2
:105030000E94F6145DCE60E070E0CB01FF2029F302
:105040001F7161E070E080E090E004C0660F771FA0
:10505000881F991F1A95D2F7D8CF81E00E941915A1
:10506000B1E0BE1508F044CE82E00E94191540CE92
:10507000812F8F71D6CFEE2079F0893349F4EFEF8D
:10508000F7EE23E0E150F0402040E1F700C00000DF
:10509000802F0E94D2182CCE812F8F71C9CFF5EFAF
:1050A0008F16FCE59F0609F44FCB98F489ED88161E
:1050B0008CE5980609F444CB9AED89169CE599068F
:1050C00009F44ECBA8ED8A16ACE59A0609F0BECAE3
:1050D00020CBB7EF8B16BCE59B0609F43DCB08F45B
:1050E00037CBF8EF8F16FCE59F0609F425CBAECA47
:1050F00086E188168CE5980609F0BDCC80918E0279
:1051000065E3811101C069E280E991E00E94E00855
:105110002CCC8091080396E189169CE5990609F448
:1051200016CC91E08272F401E35CFC45E431F105B8
:1051300008F096CCE256F74D0C94DF31B824DF240A
:10514000E624EB24F024F524FA24FF240425092581
:105150000E25132516251B251E252125242527254B
:105160002A252D250F931F93CF93DF9380919702CC
:10517000807FB9F480919402882399F08091C902CC
:10518000109198026091920270919302C0919502E1
:10519000D091960221E06F3F09F020E006E018135D
:1051A00005C0DF91CF911F910F91089531E02097B5
:1051B00021F0322F7F3F09F030E090E030FD33C026
:1051C000089FF001099FF00D1124DF01A756BD4F84
:1051D00011963C911197371326C03C91361323C08A
:1051E00012963C91129731111EC013964D915C910D
:1051F0004C1B5D0B483C5105B0F4809197028F70B9
:10520000806180939702E256FD4F80818F708061AC
:10521000808382E992E00E94851EDF91CF911F91E9
:105220000F910C94060A01968770B9CF8F929F92C6
:10523000AF92BF92CF92DF92EF92FF920F931F93A4
:10524000CF93DF93CDB7DEB761970FB6F894DEBF8B
:105250000FBECDBF8C0185E0F801DE011D960190E7
:105260000D928A95E1F7D801DC901196EC90119798
:105270001296CC90909192022091930240919502C7
:105280005091960281E04115510531F02F3F19F4FC
:1052900081E09F3F09F080E080FD49C1F801A380D3
:1052A000B48082E9882E82E0982EF0909402B501B5
:1052B000641B750BFF2009F40CC180919702382FF5
:1052C000307F683C710508F0D6C0311194C0FC2CC9
:1052D0002E1124C09D1122C0C11020C08F7080618A
:1052E00080939702C4010E94851E80919702D80185
:1052F00015968C938F2D61960FB6F894DEBF0FBE76
:10530000CDBFDF91CF911F910F91FF90EF90DF9074
:10531000CF90BF90AF909F908F90089581E0A1149F
:10532000B10431F0BFEFEB1202C081E0DB1280E08C
:1053300080FD18C081E08C2580FF16C04C2D6E2D9D
:105340008D2D0E94E609882379F082E992E00E947F
:10535000851E86E0E2E9F2E0DF011D928A95E9F719
:10536000F12CC8CF80E0E8CF81E0AB2831F0BFEF6F
:10537000EB1202C081E0DB1280E080FD25C081E0FD
:105380008C25E82FE170AE2E80FF2CC04C2D6E2DA9
:105390008D2D0E94E609B82E811124C0DD86EE868F
:1053A0008D859E850E94500D292F22952F702230C9
:1053B00068F0243090F49F7069F0D80115969C91A4
:1053C000907F41F4FB2C96CF80E0DBCF9F7011F0F3
:1053D0008823C1F3805E8830A8F3C8010E94851E2F
:1053E000BA2CF0CFCC2009F485CF80919702816050
:1053F00080939702B5CF2E1111C09D110FC0C1101F
:105400000DC08583C8010E94851E86E0F801A2E9CF
:10541000B2E001900D928A95E1F76CCFDD86EE86C1
:105420008D859E850E945A0D882309F1CC20F9F0C4
:1054300080919702803270F0209192023091930215
:1054400038872F831986BB86AA868C87CE0107965C
:105450000E94851E86E0F801A2E9B2E001900D925B
:105460008A95E1F70E94B228FF24F39443CFC80144
:105470000E94851EF9CF332309F467CF2E110EC089
:105480009D110CC0C1100AC08583C8010E94851EF1
:1054900086E0F40111928A95E9F72CCFDD86EE863D
:1054A0008D859E850E945A0D882309F3CC20F9F240
:1054B00080919702803270F2209192023091930293
:1054C0003A8329831B82BD82AC828E83CE010196F2
:1054D000BFCF683C7105E0F6FC2CCC2041F22E11C8
:1054E00015C09D1113C08091970280FD8ECF982F1B
:1054F000907F09F48ACF8583903F09F483CF982F5A
:10550000907F905F8F70892B85837CCFDD86EE86C0
:105510008D859E850E945A0D81119CCF80919702A6
:10552000816080939702C8010E94851EE3CECC2043
:1055300009F49DCFDD86EE868D859E850E945A0DED
:10554000F82E882309F493CF86E0F801A2E9B2E0AF
:1055500001900D928A95E1F78091920290919302C9
:105560000E94500D0E94B228C5CE1F93CF93DF93A7
:10557000CDB7DEB767970FB6F894DEBF0FBECDBFCD
:105580004B8B5C8B6D8B7E8B8F8B1A8A198A85E097
:10559000FE017396DE011D9601900D928A95E1F74A
:1055A00086E0FE013D96DE01179601900D928A95E8
:1055B000E1F7CE0107960E941629811137C086E0D7
:1055C000FE013796DE01119601900D928A95E1F762
:1055D0009F8188852A853B85232B39F08F3F19F4DD
:1055E00081E09F3F19F080E001C081E080FD1EC096
:1055F0002091980230E0C901019687709927409167
:10560000C9024817190659F196E0929FD001939F5D
:10561000B00D1124A756BD4FFE01319601900D9299
:105620009A95E1F7809398020E94060A16E080910D
:10563000C902909198028917F9F0819FC001112445
:1056400087569D4F0E9416298823B1F08091C90288
:1056500090E00196877099278093C902E8CF0E9455
:105660005C15109298021092C90286E0E2E9F2E01D
:10567000DF011D928A95E9F767960FB6F894DEBFB1
:105680000FBECDBFDF91CF911F9108958F929F9252
:10569000BF92CF92DF92EF92FF920F931F93CF931F
:1056A000DF9380911B0190911C01892B91F08091D7
:1056B000B6018F5F8093B60181110BC00E94401329
:1056C00090E090931C0180931B01892B11F40E94A0
:1056D0007F0E2AE4822E22E0922E740100E010E078
:1056E00097E0C92EC00E802F0E94270F8C2D0E949C
:1056F000270F802F0E94B713E70199917E01D12CCB
:10570000891729F0FE0131978083DD24D3948C2DF5
:105710000E94B713F7019681891709F47AC086832E
:1057200081E08D29182B0E94AF0D0F5F0730C1F665
:105730000E9414144091B1015091B2019093B201B2
:105740008093B1012091B00130E0241B350B820F12
:10575000931F6BEF70E00E94B731E82E392F082FAE
:105760008093B001F090B401FF2009F417C21092A9
:10577000B401E0914802F0914902AF01425F5F4FEE
:1057800020E08BEFB82E6BEF70E0A191AB3F99F06A
:10579000CA2ED12C8E2D932F0A17E8F18C199D0952
:1057A000092E000CAA0BBB0B4E97A105B105C8F141
:1057B000DF011197BC924E175F0739F72093B401B0
:1057C000112389F11092B301A0914802B0914902CE
:1057D0009091B401EDE1F3E04BE253E080E03191D0
:1057E000E40129914E01321759F03C913B3F09F0F9
:1057F000D3C10C93BF0161507109EB01288391E083
:1058000011964E175F0759F79093B4018093B30137
:1058100010C080E086CFDB01AC19BD098A0F9B1F49
:10582000BFCF2F2DC8CF222369F28091B301811100
:10583000C9CF8091B501811103C081E08093B5018A
:1058400080918C02882309F49AC180918A029091F8
:105850008B020E94D1088B3F910508F490C11092F1
:105860008C0280917F02909180024597E1F48091B3
:10587000810290918202892BB1F4809183029091F0
:105880008402892B81F48091850290918602892B74
:1058900051F48091870290918802892B21F48DE741
:1058A00091E00E94B71C80917F0290918002059741
:1058B000E1F480918102909182020797B1F4809186
:1058C000830290918402892B81F4809185029091CA
:1058D0008602892B51F48091870290918802892B4E
:1058E00021F484E391E00E94B71C80917F029091A3
:1058F00080020C97E1F480918102909182020797D7
:10590000B1F48091830290918402892B81F480917B
:10591000850290918602892B51F4809187029091A3
:105920008802892B21F48CE291E00E94B71C8091BF
:105930007F02909180024397E1F4809181029091DF
:1059400082024A97B1F48091830290918402892B5C
:1059500081F48091850290918602892B51F4809187
:10596000870290918802892B21F48BE191E00E94BB
:10597000B71C80917F02909180024297E1F4809160
:105980008102909182024397B1F4809183029091B9
:1059900084024A9781F48091850290918602892B36
:1059A00051F48091870290918802892B21F487E03D
:1059B00091E00E94B71C80917F02909180024297F3
:1059C00001F580918102909182024597D1F48091F6
:1059D0008302909184020497A1F4809185029091B2
:1059E0008602892B71F48091870290918802892B1D
:1059F00041F48CEF90E00E94B71C8EED90E00E9485
:105A0000B71C80917F02909180020D9701F58091E3
:105A10008102909182020D97D1F48091830290913E
:105A20008402892BA1F48091850290918602892BB2
:105A300071F48091870290918802892B41F485ED61
:105A400090E00E94B71C8BE290E00E94531D809171
:105A50007F0290918002059701F5809181029091DB
:105A600082020597D1F48091830290918402892B60
:105A7000A1F48091850290918602892B71F4809126
:105A8000870290918802892B41F48CEC90E00E946F
:105A9000B71C8BE290E00E94531D80917F02909191
:105AA00080024D9701F580918102909182024D977D
:105AB000D1F48091830290918402892BA1F480918A
:105AC000850290918602892B71F4809187029091D2
:105AD0008802892B41F481EC90E00E94B71C88E297
